S00C00004C6162322E73726563D7
S11300000C9434000C9451000C9451000C94510045
S11300100C9451000C9451000C9451000C94510018
S11300200C9451000C9451000C9453000C94510006
S11300300C9451000C9451000C9451000C945100F8
S11300400C9451000C9451000C9451000C945100E8
S11300500C9451000C9451000C9451000C945100D8
S11300600C9451000C94510011241FBECFEFD8E022
S1130070DEBFCDBF11E0A0E0B1E0E6E1F3E002C0F5
S113008005900D92AE3DB107D9F721E0AEEDB1E098
S113009001C01D92AA3EB207E1F70E9458010C94D8
S11300A089010C9400001F920F920FB60F92112435
S11300B08F939F93EF93FF938091810086FF09C0F4
S11300C080918600909187009093DF018093DE01F8
S11300D00AC08091860090918700EEEDF1E0938351
S11300E0828381E08387E1E8F0E0908180E48927DE
S11300F08083FF91EF919F918F910F900FBE0F908E
S11301001F901895CF93DF93C0E0D0E01DC0BE01CF
S1130110660F771F6C0F7D1F660F771F6A5F7E4F18
S113012082EE91E00E948001892B69F4CA31D105E5
S113013014F4CF5B01C0CA5EEEEDF1E0C2878285A4
S11301400E946C0104C02196C432D10504F3DF91EE
S1130150CF91089580E090E005C0FC01E252FE4F8B
S11301601482019684309105C4F31092E701109231
S1130170E6010895F89487E690E00E945D0184B159
S1130180866084B984B18E7F84B9E1E6F0E0808131
S113019080688083E1E8F0E08081856C8083EFE60D
S11301A0F0E08081806280837894EEEDF1E0138644
S11301B0118610860E94AA0008958091E901813079
S11301C0B9F020F0823009F46CC008958091840065
S11301D0909185002091E0013091E101821B930B05
S11301E0893C9F4A08F463C082E08093E901089542
S11301F0EEEDF1E08281938120813181821B930BAA
S11302009C01245D3140253E394010F580E091E0A9
S11302100E947301EEEDF1E0808591859C012F5FD2
S11302203F4F31872087FC01E252FE4F2EE22483A8
S113023085B1826085B98FEF90E722E081509040CC
S11302402040E1F700C0000085B18D7F85B926C04C
S1130250885B9B40833B9C4008F583E091E00E94CF
S11302607301EEEDF1E0808591859C012F5F3F4F96
S113027031872087FC01E252FE4F2DE2248385B1B1
S1130280846085B98FEF90E722E081509040204050
S1130290E1F700C0000085B18B7F85B91092E901B8
S11302A008950E9482000E94AA001092E901089514
S11302B00E94BA000E94DD00FDCF9093C500809398
S11302C0C40088E18093C100E2ECF0E086E0808322
S11302D080818860808308959091C00095FFFCCF51
S11302E08093C6000895CF93DF93EC0103C00E946E
S11302F06C01219688818111FACFDF91CF91089505
S1130300FB01DC018D91019080190110D9F3990B47
S10903100895F894FFCFEC
S11303162E20002D20002E2D000000002D2E2E2E26
S113032600002D2E2D2E00002D2E2E0000002E0056
S1130336000000002E2E2D2E00002D2D2E00000074
S11303462E2E2E2E00002E2E000000002E2D2D2DDA
S113035600002D2E2D0000002E2D2E2E00002D2DFA
S1130366000000002D2E000000002D2D2D000000A1
S11303762E2D2D2E00002D2D2E2D00002E2D2E007F
S113038600002E2E2E0000002D00000000002E2E50
S11303962D0000002E2E2E2D00002E2D2D000000E7
S11303A62D2E2E2D00002D2E2D2D00002D2D2E2E22
S11303B600002D2D2D2D2D002E2D2D2D2D002E2E14
S11303C62D2D2D002E2E2E2D2D002E2E2E2E2D00D3
S11303D62E2E2E2E2E002D2E2E2E2E002D2D2E2E92
S11103E62E002D2D2D2E2E002D2D2D2D2E0012
S9030000FC
